:020000040000FA
:1000000000000220CD030000D3150000DB15000026
:10001000090400000D0400001104000000000000AD
:1000200000000000000000000000000015040000B7
:1000300019040000000000001D040000210400005D
:1000400021160000290400002D04000031040000E6
:10005000892100004D22000081220000410400009F
:100060004504000049040000F14A0000712300002B
:1000700099240000590400005D04000061040000A0
:100080001D4A0000690400006D040000B522000054
:100090007504000079040000C523000081040000FD
:1000A00085040000890400008D0400009104000014
:1000B00095040000E51500009D040000A104000067
:1000C000A5040000A9040000AD040000B104000074
:1000D000DD210000B904000000000000BD040000A4
:1002FC002143658710B5054C237833B9044B13B1F2
:10030C000448AFF300800123237010BD3C0C002087
:10031C00000000006C5D000008B5034B1BB10349E5
:10032C000348AFF3008008BD00000000400C002023
:10033C006C5D0000A3F5803A704700BF174B002B93
:10034C0008BF134B9D46FFF7F5FF00218B460F4668
:10035C001348144A121A04F027FD0E4B002B00D040
:10036C0098470D4B002B00D098470020002104002B
:10037C000D000D48002802D00C4804F0D7FD04F005
:10038C00BDFC2000290000F073FF04F0A7FC00BFA7
:10039C000000080000000000000000000000022027
:1003AC003C0C002064AA0020394F0000454F00008F
:1003BC00036883F3088843681847BFF34F8F000026
:1003CC00064880470649074A074B9A42BEBF51F878
:1003DC00040B42F8040BF8E704488047DD260000C4
:1003EC00985D0000000800203C0C00204903000030
:1003FC00FFF7FEBF2F4800472F4800472F48004704
:10040C002F4800472F4800472F4800472F480047E8
:10041C002F4800472F4800472F4800472F480047D8
:10042C002F4800472F4800472F4800472F480047C8
:10043C002F4800472F4800472F4800472F480047B8
:10044C002F4800472F4800472F4800472F480047A8
:10045C002F4800472F4800472F4800472F48004798
:10046C002F4800472F4800472F4800472F48004788
:10047C002F4800472F4800472F4800472F48004778
:10048C002F4800472F4800472F4800472F48004768
:10049C002F4800472F4800472F4800472F48004758
:1004AC002F4800472F4800472F4800472F48004748
:1004BC002F480047D3150000DB150000090400008D
:1004CC000D040000110400001504000019040000C4
:1004DC001D04000021040000FD030000CD320000CB
:1004EC00393600005D360000453A0000753A0000D0
:1004FC00A53A0000D53A000095450000FD03000028
:10050C00A9310000B7310000553E0000D331000086
:10051C00A9330000D5330000013400002D34000055
:10052C005934000085340000B1340000DD34000083
:10053C00FD030000FD030000FD030000FD030000AF
:10054C00FD030000FD030000FD030000FD0300009F
:10055C00FD030000FD030000053B0000353B0000DF
:10056C00653B0000953B0000C5310000E131000007
:10057C00FD030000844641EA000313F003036DD130
:10058C00403A41D351F8043B40F8043B51F8043B4A
:10059C0040F8043B51F8043B40F8043B51F8043B51
:1005AC0040F8043B51F8043B40F8043B51F8043B41
:1005BC0040F8043B51F8043B40F8043B51F8043B31
:1005CC0040F8043B51F8043B40F8043B51F8043B21
:1005DC0040F8043B51F8043B40F8043B51F8043B11
:1005EC0040F8043B51F8043B40F8043B51F8043B01
:1005FC0040F8043B51F8043B40F8043B51F8043BF1
:10060C0040F8043B403ABDD2303211D351F8043B90
:10061C0040F8043B51F8043B40F8043B51F8043BD0
:10062C0040F8043B51F8043B40F8043B103AEDD23F
:10063C000C3205D351F8043B40F8043B043AF9D290
:10064C00043208D0D2071CBF11F8013B00F8013B63
:10065C0001D30B8803806046704700BF082A13D370
:10066C008B078DD010F003038AD0C3F10403D21A88
:10067C00DB071CBF11F8013B00F8013B80D331F8BC
:10068C00023B20F8023B7BE7043AD9D3013A11F83C
:10069C00013B00F8013BF9D20B7803704B784370A7
:1006AC008B7883706046704781F0004102E000BF98
:1006BC0083F0004330B54FEA41044FEA430594EA16
:1006CC00050F08BF90EA020F1FBF54EA000C55EA51
:1006DC00020C7FEA645C7FEA655C00F0E2804FEA22
:1006EC005454D4EB5555B8BF6D420CDD2C4480EA04
:1006FC00020281EA030382EA000083EA010180EA34
:10070C00020281EA0303362D88BF30BD11F0004F81
:10071C004FEA01314FF4801C4CEA113102D04042B7
:10072C0061EB410113F0004F4FEA03334CEA1333F2
:10073C0002D0524263EB430394EA050F00F0A7800A
:10074C00A4F10104D5F1200E0DDB02FA0EFC22FA05
:10075C0005F2801841F1000103FA0EF2801843FAF9
:10076C0005F359410EE0A5F120050EF1200E012AEA
:10077C0003FA0EFC28BF4CF0020C43FA05F3C01828
:10078C0051EBE37101F0004507D54FF0000EDCF1A1
:10079C00000C7EEB00006EEB0101B1F5801F1BD34A
:1007AC00B1F5001F0CD349085FEA30004FEA3C0C4E
:1007BC0004F101044FEA445212F5800F80F09A8044
:1007CC00BCF1004F08BF5FEA500C50F1000041EB48
:1007DC00045141EA050130BD5FEA4C0C404141EB4C
:1007EC000101013C28BFB1F5801FE9D291F0000F47
:1007FC0004BF01460020B1FA81F308BF2033A3F1F6
:10080C000B03B3F120020CDA0C3208DD02F1140CEC
:10081C00C2F10C0201FA0CF021FA02F10CE002F127
:10082C001402D8BFC2F1200C01FA02F120FA0CFC20
:10083C00DCBF41EA0C019040E41AA2BF01EB045169
:10084C00294330BD6FEA04041F3C1CDA0C340EDC67
:10085C0004F11404C4F1200220FA04F001FA02F3AA
:10086C0040EA030021FA04F345EA030130BDC4F168
:10087C000C04C4F1200220FA02F001FA04F340EA5D
:10088C000300294630BD21FA04F0294630BD94F00E
:10089C00000F83F4801306BF81F480110134013DF5
:1008AC004EE77FEA645C18BF7FEA655C29D094EA66
:1008BC00050F08BF90EA020F05D054EA000C04BFE4
:1008CC001946104630BD91EA030F1EBF00210020CF
:1008DC0030BD5FEA545C05D14000494128BF41F06E
:1008EC00004130BD14F580043CBF01F5801130BDD2
:1008FC0001F0004545F0FE4141F470014FF000005D
:10090C0030BD7FEA645C1ABF194610467FEA655C0D
:10091C001CBF0B46024650EA013406BF52EA0335AF
:10092C0091EA030F41F4002130BD00BF90F0000F9D
:10093C0004BF0021704730B54FF4806404F13204D9
:10094C004FF000054FF0000150E700BF90F0000F92
:10095C0004BF0021704730B54FF4806404F13204B9
:10096C0010F0004548BF40424FF000013EE700BF89
:10097C0042004FEAE2014FEA31014FEA02701FBF19
:10098C0012F07F4393F07F4F81F06051704732F04B
:10099C007F4208BF704793F07F4F04BF41F40021A2
:1009AC00704730B54FF4607401F0004521F0004100
:1009BC001CE700BF50EA010208BF704730B54FF08A
:1009CC0000050AE050EA010208BF704730B511F08B
:1009DC00004502D5404261EB41014FF4806404F1C3
:1009EC0032045FEA915C3FF4D8AE4FF003025FEA49
:1009FC00DC0C18BF03325FEADC0C18BF033202EBCD
:100A0C00DC02C2F1200300FA03FC20FA02F001FA26
:100A1C0003FE40EA0E0021FA02F11444BDE600BFC9
:100A2C0070B54FF0FF0C4CF4E06C1CEA11541DBF78
:100A3C001CEA135594EA0C0F95EA0C0F00F0DEF843
:100A4C002C4481EA030621EA4C5123EA4C5350EA28
:100A5C00013518BF52EA033541F4801143F4801379
:100A6C0038D0A0FB02CE4FF00005E1FB02E506F00A
:100A7C000042E0FB03E54FF00006E1FB03569CF05F
:100A8C00000F18BF4EF0010EA4F1FF04B6F5007F65
:100A9C0064F5407404D25FEA4E0E6D4146EB0606D7
:100AAC0042EAC62141EA55514FEAC52040EA5E5060
:100ABC004FEACE2EB4F1FD0C88BFBCF5E06F1ED80A
:100ACC00BEF1004F08BF5FEA500E50F1000041EB41
:100ADC00045170BD06F0004646EA010140EA0200EE
:100AEC0081EA0301B4EB5C04C2BFD4EB0C0541EA10
:100AFC00045170BD41F480114FF0000E013C00F325
:100B0C00AB8014F1360FDEBF002001F0004170BD48
:100B1C00C4F10004203C35DA0C341BDC04F1140461
:100B2C00C4F1200500FA05F320FA04F001FA05F2ED
:100B3C0040EA020001F0004221F0004110EBD370BA
:100B4C0021FA04F642EB06015EEA430E08BF20EAE6
:100B5C00D37070BDC4F10C04C4F1200500FA04F389
:100B6C0020FA05F001FA04F240EA020001F000411B
:100B7C0010EBD37041F100015EEA430E08BF20EA8E
:100B8C00D37070BDC4F1200500FA05F24EEA020ED6
:100B9C0020FA04F301FA05F243EA020321FA04F005
:100BAC0001F0004121FA04F220EA020000EBD370BC
:100BBC005EEA430E08BF20EAD37070BD94F0000FBC
:100BCC000FD101F00046400041EB010111F4801FF0
:100BDC0008BF013CF7D041EA060195F0000F18BFA1
:100BEC00704703F00046520043EB030313F4801FDD
:100BFC0008BF013DF7D043EA0603704794EA0C0F97
:100C0C000CEA135518BF95EA0C0F0CD050EA4106AC
:100C1C0018BF52EA4306D1D181EA030101F0004129
:100C2C004FF0000070BD50EA410606BF1046194651
:100C3C0052EA430619D094EA0C0F02D150EA01365D
:100C4C0013D195EA0C0F05D152EA03361CBF10469E
:100C5C0019460AD181EA030101F0004141F0FE413D
:100C6C0041F470014FF0000070BD41F0FE4141F4C1
:100C7C00780170BD70B54FF0FF0C4CF4E06C1CEAC1
:100C8C0011541DBF1CEA135594EA0C0F95EA0C0F76
:100C9C0000F0A7F8A4EB050481EA030E52EA033531
:100CAC004FEA013100F088804FEA03334FF0805552
:100CBC0045EA131343EA12634FEA022245EA11157F
:100CCC0045EA10654FEA00260EF000419D4208BF30
:100CDC00964244F1FD0404F5407402D25B084FEADD
:100CEC003202B61A65EB03055B084FEA32024FF489
:100CFC0080104FF4002CB6EB020E75EB030E22BFE6
:100D0C00B61A754640EA0C005B084FEA3202B6EBA5
:100D1C00020E75EB030E22BFB61A754640EA5C0054
:100D2C005B084FEA3202B6EB020E75EB030E22BFE4
:100D3C00B61A754640EA9C005B084FEA3202B6EBE5
:100D4C00020E75EB030E22BFB61A754640EADC00A4
:100D5C0055EA060E18D04FEA051545EA16754FEA06
:100D6C0006164FEAC30343EA52734FEAC2025FEA24
:100D7C001C1CC0D111F4801F0BD141EA00014FF0B3
:100D8C0000004FF0004CB6E711F4801F04BF014384
:100D9C000020B4F1FD0C88BFBCF5E06F3FF6AFAEA0
:100DAC00B5EB030C04BFB6EB020C5FEA500C50F130
:100DBC00000041EB045170BD0EF0004E4EEA1131B3
:100DCC0014EB5C04C2BFD4EB0C0541EA045170BDBA
:100DDC0041F480114FF0000E013C90E645EA060EFE
:100DEC008DE60CEA135594EA0C0F08BF95EA0C0F2C
:100DFC003FF43BAF94EA0C0F0AD150EA01347FF474
:100E0C0034AF95EA0C0F7FF425AF104619462CE74A
:100E1C0095EA0C0F06D152EA03353FF4FDAE1046AD
:100E2C00194622E750EA410618BF52EA43067FF4FE
:100E3C00C5AE50EA41047FF40DAF52EA43057FF48E
:100E4C00EBAE12E74A0011D212F5001211D20DD5F9
:100E5C006FF47873B3EB62520ED44FEAC12343F0B4
:100E6C00004343EA505323FA02F070474FF000005E
:100E7C00704750EA013002D14FF0FF3070474FF00D
:100E8C000000704753B94AB9002908BF00281CBF9D
:100E9C004FF0FF314FF0FF3000F074B9ADF1080C9A
:100EAC006DE904CE00F006F8DDF804E0DDE902237C
:100EBC0004B070472DE9F047089D04468E46002B80
:100ECC004DD18A42944669D9B2FA82F252B101FAF2
:100EDC0002F3C2F1200120FA01F10CFA02FC41EA02
:100EEC00030E94404FEA1C48210CBEFBF8F61FFA87
:100EFC008CF708FB16E341EA034306FB07F1994222
:100F0C000AD91CEB030306F1FF3080F01F819942D4
:100F1C0040F21C81023E63445B1AA4B2B3FBF8F0AE
:100F2C0008FB103344EA034400FB07F7A7420AD935
:100F3C001CEB040400F1FF3380F00A81A74240F25D
:100F4C0007816444023840EA0640E41B00261DB1C8
:100F5C00D4400023C5E900433146BDE8F0878B42FD
:100F6C0009D9002D00F0EF800026C5E900013046BC
:100F7C003146BDE8F087B3FA83F6002E4AD18B4296
:100F8C0002D3824200F2F980841A61EB0303012040
:100F9C009E46002DE0D0C5E9004EDDE702B9FFDE2C
:100FAC00B2FA82F2002A40F09280A1EB0C014FEAD7
:100FBC001C471FFA8CFE0126200CB1FBF7F307FB34
:100FCC00131140EA01410EFB03F0884208D91CEBD7
:100FDC00010103F1FF3802D2884200F2CB80434674
:100FEC00091AA4B2B1FBF7F007FB101144EA014453
:100FFC000EFB00FEA64508D91CEB040400F1FF31E2
:10100C0002D2A64500F2BB800846A4EB0E0440EACF
:10101C0003409CE7C6F12007B34022FA07FC4CEAD8
:10102C00030C20FA07F401FA06F31C43F9404FEACB
:10103C001C4900FA06F3B1FBF9F8200C1FFA8CFEE0
:10104C0009FB181140EA014108FB0EF0884202FA34
:10105C0006F20BD91CEB010108F1FF3A80F08880F5
:10106C00884240F28580A8F102086144091AA4B2B2
:10107C00B1FBF9F009FB101144EA014100FB0EFE33
:10108C008E4508D91CEB010100F1FF346CD28E4562
:10109C006AD90238614440EA0840A0FB0294A1EBF3
:1010AC000E01A142C846A64656D353D05DB1B3EB50
:1010BC00080261EB0E0101FA07F722FA06F3F14080
:1010CC001F43C5E9007100263146BDE8F087C2F127
:1010DC002003D8400CFA02FC21FA03F3914001439F
:1010EC004FEA1C471FFA8CFEB3FBF7F007FB1036D8
:1010FC000B0C43EA064300FB0EF69E4204FA02F484
:10110C0008D91CEB030300F1FF382FD29E422DD9D6
:10111C00023863449B1B89B2B3FBF7F607FB16330B
:10112C0041EA034106FB0EF38B4208D91CEB01018B
:10113C0006F1FF3816D28B4214D9023E6144C91A0B
:10114C0046EA004638E72E46284605E70646E3E61B
:10115C001846F8E64B45A9D2B9EB020864EB0C0E25
:10116C000138A3E74646EAE7204694E74046D1E734
:10117C00D0467BE7023B614432E7304609E76444E2
:10118C00023842E7704700BF014B01221A707047CA
:10119C005914002030B58FB004462522002104A834
:1011AC0003F002FE002304A8CDE901338DF80C30C6
:1011BC0001F09CF910B101F096F9FCE701A801F0DF
:1011CC007BF910B101F08FF9FCE701AB03CB1B7875
:1011DC0023722060616004AA04F109030CAD14466B
:1011EC0003CCAC4218605960224603F10803F6D1D7
:1011FC002068186022791A710FB030BD38B50A4DCD
:10120C002B780C4673B908B1022902D801F06BF99E
:10121C00FCE70A4601460548FFF7ACF901232B70A1
:10122C00034B1C6038BD00BF58140020580C002024
:10123C005C14002007B50C4B002201A81A7003F0B7
:10124C00D7FA10B101F04FF9FCE74FF47A7003F0C4
:10125C00E3FA064903F06EFA10B101F044F9FCE729
:10126C0003B05DF804FB00BF591400209511000079
:10127C002DE9F0419AB0322200210DA803F094FD23
:10128C0000F02EFD10B101F02EF9FCE701F018FA78
:10129C00044610B101F027F9FCE7642003F08EF945
:1012AC004FF4E13301A8ADF80440029303F0E2FAE5
:1012BC0040B99C4803F0A2FB002800F0FF8001F02D
:1012CC0012F9FCE701F00FF9FCE701F00CF9FCE76F
:1012DC00FFF7B0FF944F954E3B78002B00F0DD806C
:1012EC0003F074FA054610B101F0FDF8FCE77278D2
:1012FC003378B478022143EA02230DEB0100ADF8F8
:10130C00023000F04CF98A4BBDF802101A688B1CA5
:10131C00934240F0B980062B40F2B6804B1F5FFA27
:10132C0083F856FA83F30239D3F80320304600F0E1
:10133C002DF9002840F0A680032C00F2A380DFE8F2
:10134C0004F00252829FB8F1000F40F0A0802E22D0
:10135C00414601A803F028FD01A8FFF71BFF04215B
:10136C000DF1050000F01BF904210DF1090000F04E
:10137C0016F904210DF10E0000F011F904210DF104
:10138C00120000F00CF904210DF1160000F007F921
:10139C00684B01AA0BAD144603CCAC4218605960E3
:1013AC00224603F10803F6D120681860A2889A80BF
:1013BC0000242E20604DB378AB70831D0430DBB25B
:1013CC00EC70C4B221462B80284600F0DDF8285181
:1013DC00298800220231284603F0ECFA002859D063
:1013EC0001F081F8FCE7B8F1250F0CD101A801F050
:1013FC007DF810B101F077F8FCE7BDF82120338CB3
:10140C009A4202D004240020D4E74C4903220DF167
:10141C00230003F097FC0028F4D14948042100F084
:10142C00BEF84848042100F0BAF84748042100F0FF
:10143C00B6F8464801F062F8F0B16FF4E1639842F7
:10144C00E0D00224DFE7B8F1040F1BD904210DEB27
:10145C000100D6F80330019300F0A1F83C49019843
:10146C00A8F1040201F05EF830B110F1660F05D05E
:10147C006D3008BF0324C6E70446C4E70324C2E763
:10148C0001F02EF8002003E02846052492E72046C0
:10149C0001248FE73870FFF7CDFE2E4B1B78002B05
:1014AC003FF41AAF03F04EFA03F042F901F0E4F8FE
:1014BC0000283FF411AF01F016F8FCE703F0FCF83C
:1014CC00044600287FF401AF0DA8FFF763FE04214A
:1014DC000DF1350000F063F804210DF1390000F036
:1014EC005EF804210DF13E0000F059F804210DF1D5
:1014FC00420000F054F804210DF1460000F04FF8C2
:10150C002E210DA800F040F82246CDF862003221C1
:10151C000DA803F04FFA00283FF4DAAE00F0E3FF19
:10152C00FCE700BF0912000058140020580C0020E2
:10153C005C1400205C100020581000207A0C002055
:10154C005C0C0020600C0020640C00205B0C002064
:10155C005F0C00205914002030B50A4D034601449D
:10156C004FF0FF308B4200D130BD13F8012B5040AF
:10157C00202200284FEA4000B8BF6840013AF8D159
:10158C00F0E700BFB71DC104FFF7E6BF10B5144666
:10159C00FFF7E2FF001B18BF4FF0FF3010BD10B576
:1015AC0010B900F0A0FFFCE700EB5103A1EB5101D7
:1015BC000144834200D110BD13F8012D0C781C702E
:1015CC0001F8012BF5E708B500F08DFFFCE708B535
:1015DC0000F089FFFCE7000010B50D4C23681A07DA
:1015EC0007D5236823F00C0343F00803236002F0B3
:1015FC00FFFF23685B0707D5236823F00C0343F038
:10160C000403236000F048FFBFF34F8F10BD00BFF1
:10161C0000C0024008B5094B5A6C120607D55A6C2B
:10162C0022F080025A645A6C42F080025A64044BD5
:10163C001B6803B19847BFF34F8F08BD00000240F1
:10164C0098A40020BFF34F8F0549064BCA6802F4DB
:10165C00E0621343CB60BFF34F8F00BFFDE700BFC9
:10166C0000ED00E00400FA05436843F00203436018
:10167C00436823F0020343607047000009490A885D
:10168C0042FA00F3DB0710B50AD422B9064B012449
:10169C001C7183F82C40012303FA00F010430880DE
:1016AC0010BD00BFE4A4002000C00840084A138805
:1016BC0043FA00F1C90741BF012101FA00F083434D
:1016CC00138013881BB9034A137182F82C307047AE
:1016DC00E4A4002000C00840024B002083F82C003A
:1016EC00704700BF00C00840024B012283F82C2039
:1016FC000020704700C008401FB580B179B10023AD
:10170C00CDE900304FF48013CDE90231054869462C
:10171C0002F0C6FC02F048FF05B05DF804FB6FF068
:10172C000400F9E7009008401FB580B179B10022A0
:10173C004FF480130090039106486946CDE90123CC
:10174C0002F0AEFC02F030FF05B05DF804FB6FF068
:10175C000400F9E70090084013B58388ADF8003019
:10176C00C38802880C4CADF802308378ADF80420A5
:10177C008DF80630236823F08003236069462046E9
:10178C0002F015FB02F010FF18B9236843F0800338
:10179C00236002B010BD00BF00C002402DE9F04331
:1017AC00044685B000283AD11E4F1F484FF08045A3
:1017BC0002F090FB4FF4C0784FF480434FF4005983
:1017CC00C5F844320126C5F820921848C7F8348071
:1017DC0001AB0D2221468DF804608DF8054001F017
:1017EC006CFFC7F8308011488DF8086002AB0C22F2
:1017FC0021468DF8094001F060FFC7F82C800B489A
:10180C008DF80C6003AB0B2221468DF80D4001F0D6
:10181C0054FFC5F84092204605B0BDE8F0836FF048
:10182C000400F9E7001000400090084000C0084098
:10183C0030B587B00546002401208DF8044001F036
:10184C0045F94FF47A7301A9B0FBF3F002900F48FD
:10185C0001F0ECFB0D48FFF707FF7DB121464FF07F
:10186C00402002F0A9F832220123CDE903230748D6
:10187C008DF8143003AA214601F04CFC034A53683E
:10188C0043F00103536007B030BD00BF008002403D
:10189C0038B50D46144600283FD140F20F1000F029
:1018AC009BFF1F4802F0D2F91E4B4FF080424FF4C1
:1018BC00005140F28110C2F82012D862186340F235
:1018CC00891058631848C2F8401202F0EDFA164B12
:1018DC00032C20D8DFE804F002171A1C00225A80CF
:1018EC0001225A7007221A73032000221A719D607C
:1018FC0001F0ACF80C4902460C4802F02FFBBDE895
:10190C00384002F051BE4FF48072E8E70122E6E75E
:10191C0040F20112E3E7FFF795FE6FF0040038BDCB
:10192C000E00010000100040CCA4002000900840E4
:10193C00002208B504491046FFF7AAFF18B9034B5B
:10194C00012283F82C2008BD80841E0000C00840B2
:10195C000B48836E8366436E23F001034366436E2C
:10196C0023F004034366074B4FF48002C3F8802036
:10197C00BFF34F8FBFF36F8FC3F8802100F0C4BE4D
:10198C0000000A4000E100E070B50C4600B30128ED
:10199C0014BF00234FF4F043224603F120061D46EA
:1019AC0003CDB542106051602B4602F10802F6D10E
:1019BC00286810602B791371D4F80130D4F8092001
:1019CC001344B3F5802F8CBF6FF4E160002070BD21
:1019DC004FF4F843E0E70000F8B50C46002848D077
:1019EC00012814BF00264FF4F046D4F80130D4F887
:1019FC0009201344B3F5802F3ED80021084601F08E
:101A0C0085FE98BB1F4F03F0B9F8310A3A680846B7
:101A1C0001F0D8FE054603F0C3F83DBB2946284625
:101A2C0001F074FE10BB4FF480521748FF2103F0F5
:101A3C00BBF9154A234604F1200518685968144669
:101A4C0003C40833AB422246F7D1186820601B79D7
:101A5C00237103F093F83B680B494FF480723046C6
:101A6C0001F06FFE044603F09BF844B16FF00100E7
:101A7C00F8BD4FF4F846B8E76FF4E160F8E720469C
:101A8C00F6E700BF000800209494002008B5072159
:101A9C00012001F03BFE08B1FFF7D4FD03F06EF816
:101AAC00054B07211A68012001F06CFE0028F3D1C8
:101ABC00BDE8084003F074B8000800202DE9F0419F
:101ACC00ADF5207D2522002110A803F06DF925220B
:101ADC0000211AA803F068F9554B6C4603F1100865
:101AEC0018685968224603C2083343451446F7D197
:101AFC00694648A803F002FC1AA90120FFF744FF2D
:101B0C0008B1FFF79FFD10A9FFF73EFF0446002820
:101B1C006BD19DF868209DF840309A4265D0014603
:101B2C0068222EA803F040F92EA803F025FB414FA4
:101B3C00DDF84560A6425CD82EA908A803F088FB06
:101B4C0008A910220DF14D0003F0FCF80146002805
:101B5C004BD1252224A803F027F9354B04AC186887
:101B6C005968224603C2083343451446F7D104A9E9
:101B7C0074A803F0C3FB24A90020FFF705FF05465A
:101B8C000028BED1FFF782FF2A4E2B4F28464FF478
:101B9C0000423146154403F01DFE0028B1D1044625
:101BAC00311974A803F0E6FB04F110039CB21B047A
:101BBC00F6D5E90B084601F0A9FD0028A1D102F0E9
:101BCC00DDFF3B684FF400423146284601F0B9FD79
:101BDC00002896D102F0E4FFB5F5603FD6D124A9D8
:101BEC000120FFF7F9FE00288BD10DF5207DBDE813
:101BFC00F08104F50043B3428CBF361B4FF4004612
:101C0C0032463946204603F0E5FD00287FF479AFD3
:101C1C0005467919103548A8ADB203F0ABFBB542B7
:101C2C00F7D3324639462EA803F0CEFA34447FE778
:101C3C00E4580000601400200008002030B5ADB05E
:101C4C0025220021054608A803F0AEF868220021E1
:101C5C0012A803F0A9F808A90120FFF795FE044685
:101C6C0008B1FFF7EFFC12A803F086FADDF8252087
:101C7C00DDF8211012A803F0A7FA12A9684603F0A8
:101C8C00E7FA102269460DF12D0003F05BF828B934
:101C9C00DDF821302B6020462DB030BD004CFAE72A
:101CAC00F6F8FFFF13B501238DF804300B484FF005
:101CBC00804300214FF400524FF4C0748DF805108E
:101CCC00C3F82022C460C3F8402200F50B2001ABFE
:101CDC00032201F0F2FC02B010BD00BF0010004066
:101CEC00C949CA4BCA682DE9F04722F4E0621204D4
:101CFC00120C94B01343CB6018220021684603F0F9
:101D0C0053F84FF080434FF40052C148C3F82022DF
:101D1C00002101F0CFFCBE48BE4DBD4F012101F0AA
:101D2C00C9FC00244FF4C476E3B2A3F11002022ADA
:101D3C000FD903F0F703012B0BD045F824600021D9
:101D4C000DAB224638468DF834108DF8351001F065
:101D5C00B4FC0134172CE7D1AE4FAD4E09254FF42E
:101D6C00C47805F120032A4647F8238000238DF818
:101D7C0034308DF8353001210DAB3046013501F092
:101D8C009CFC122DEDD1A34EA14D4FF4B467192C30
:101D9C0008BF012346F824704FF0000108BF8DF8EE
:101DAC00343022460DAB284604F1010418BF8DF8DF
:101DBC0034108DF8351001F080FC1B2CE7D1954FB9
:101DCC009348934D00244FF4C478C7F878800DAB3A
:101DDC001E2221468DF834408DF8354001F06DFC03
:101DEC004FF4C073FB6701238DF834308DF8353018
:101DFC0087480DAB1F22214601F05FFC04F1200344
:101E0C004FF0000A47F8238022460DAB01212846EB
:101E1C0001348DF834A08DF835A001F04EFC092C5E
:101E2C00ECD17D4D0FCD4FF080464FF4005906ACF0
:101E3C00C6F840920FC495E8070084E80700102408
:101E4C005146224610A802F0AFFF744D744805238A
:101E5C000F934FF48003CDE90D50C6F83046C6F809
:101E6C00303600F0FBFC6F4800F0B6FC284602F060
:101E7C00ADFE284600F062FE4FF4827000F0ACFC20
:101E8C0006A90DA800F09CFE08B1FFF7DBFB06A825
:101E9C0000F0D8FF04460028F7D10246012120208B
:101EAC0000F0CAFC604800F097FCD6F88032584825
:101EBC0023F00303C6F880325C4BADF834401D6050
:101ECC000322C6F820920DAB2146C7F80C80C6F849
:101EDC00409201F0F2FBFFF7E5FE04238DF835305C
:101EEC0007238DF837300E238DF839300222012369
:101EFC000DAD48498DF83A308DF818308DF83440D6
:101F0C008DF836408DF838408DF83B208DF819400F
:101F1C002B46C6F820924FF4C0701E785A780134C4
:101F2C0002EB4612042C41F8220003F10203F4D117
:101F3C004FF080434FF40052354EC3F8402200243A
:101F4C006A7815F8021B06AB3046013401F0B5FB7C
:101F5C00042CF5D14FF0402001F08CFC03F04CF830
:101F6C00044608BB4FF080423148D2F80C3543F0A0
:101F7C000103C2F80C350368DB0719D54FF4407325
:101F8C00ADF8343038238DF8363040F2E773ADF8C5
:101F9C00383041F60553ADF83A3001F0F9FE0DA892
:101FAC00FFF7DAFB044628B1204614B0BDE8F087F1
:101FBC0001F0EEFE1E4A1648136843F080031360CE
:101FCC00002301218DF835300C220DAB8DF8341027
:101FDC0001F073FB0F4B4FF4C072C3F8B020154BDC
:101FEC000593154B0493154B02936846144B0393BE
:101FFC0003F0D6FA04460028D6D1124801F090FA24
:10200C00114801F08DFACFE700ED00E00007FA056A
:10201C0000C00840001000404458000000E1F505E5
:10202C00001BB70000111000001130000008002048
:10203C0000C00240F5160000E51600003517000040
:10204C0005170000002000400030004037B54FF06D
:10205C008044434800F0C0FB4FF48003C4F82036A2
:10206C00404B4148186002F0B1FD3F4800F066FD5E
:10207C003E494FF400524FF4D0704FF48043C4F8F3
:10208C002022C860C4F84022C4F84032C4F8202290
:10209C00C860C4F84022C4F84032D4F80C3523F0A0
:1020AC000103C4F80C35324B186820F0800018601E
:1020BC004FF40000C4F84002186820F0800018604B
:1020CC0004208DF8010007208DF803000E208DF8F8
:1020DC000500012000238DF8060002208DF8003049
:1020EC008DF802308DF804308DF80700C4F82022EA
:1020FC006A464FF4D47415785078013300EB4510D0
:10210C00042B41F8204002F10202F4D14FF080433D
:10211C004FF40052C3F840224FF480114FF4804228
:10212C00C3F84022C3F82016C3F830264FF40042FF
:10213C00C3F830260020FFF731FB08B1FFF782FA15
:10214C0000F0C4FA0B4801F041FA0B4801F03EFADA
:10215C004FF0402003B0BDE8304001F04DBC00BF53
:10216C000011100000080020001BB70000100040F8
:10217C0000C00240002000400030004008B5104B69
:10218C0001224FF0402000211A7001F0CAFB0D4BC8
:10219C00DB78012BD8B204D1FFF74AFBBFF34F8F8A
:1021AC0008BD0028FAD1084B98685A6822F0010241
:1021BC005A60064B1B68002BF0D09847EEE700BF27
:1021CC0095A4002000C0084000800240A0A400207C
:1021DC0008B5174B174901221A700B680B60DB0707
:1021EC0013D5154BDB7893424FF0000318D11946E9
:1021FC0002224FF0402001F05FFB104B1B68ABB983
:10220C0000214FF0402001F097FB0020FFF710FB5E
:10221C00084B5A695A619A6A9A62BFF34F8F08BD8C
:10222C0019464FF0402001F047FBE9E79847E7E7F4
:10223C0095A400200080024000C008409CA400200F
:10224C0008B501214FF0402001F06BFB064B20221A
:10225C00C3F88021054B01221A70054B1B6803B192
:10226C009847BFF34F8F08BD00E100E095A4002014
:10227C00A4A4002008B502214FF0402001F051FB2E
:10228C00064B4022C3F88021054B01221A70054BE6
:10229C005B6803B19847BFF34F8F08BD00E100E0C6
:1022AC0095A40020A4A40020F0B5284B2849D3F80D
:1022BC00042E01260E7012F0020187B009D0022202
:1022CC00C3F8042E0022C3F8042EBFF34F8F07B0BF
:1022DC00F0BD520637D51F4DC3F8041E2C88D3F819
:1022EC00307E312CF1D854BB40F2011330460493AC
:1022FC008DF80440029400F0E9FB28235843FEF7C4
:10230C0015FB154B0022FEF7B5FCFEF79BFD01A952
:10231C00039012488DF8146000F088FE0F48FFF708
:10232C00A3F9436843F00103436003AA214600F07C
:10233C00F1FE2B880A4AD75401332B80C5E7074896
:10234C00FFF792F9F5E7FFF77DF900BF0060094050
:10235C0095A40020E6A4002000408F40009000408F
:10236C00609400200E4A136870B513600D4A012169
:10237C00DB07117011D50C4E318871B10B4B0C4C25
:10238C001B680825C4F8145E0BB9FFF75BF9094804
:10239C00984700233380C4F8105EBFF34F8F70BD95
:1023AC000090004095A40020E6A40020ACA40020DE
:1023BC0000600940609400202DE9FF47DFF8C080E1
:1023CC00D8F86870FB001BD5284E00253446E279FE
:1023DC00AA42D4E9031320D801338B4223610FD3D3
:1023EC00234B01221A70FFF7B3FA636943B12148FA
:1023FC0001F02CFC204801F019FD6369002098477E
:10240C001E4B01221A701E4B9F661E4B4FF480020E
:10241C00C3F8802104B0BDE8F08701FB05394A43BD
:10242C004A45D9D9184A16F8010BD4F808A000234C
:10243C00114692F808C0844510D10C2202FB0313FC
:10244C00404659686A4600F06FF908B9FFF7FAF888
:10245C00BDF800302AF819300135B8E70133072BE5
:10246C0002F10C02E5D10023F4E700BFB4A4002074
:10247C0094A40020020001000050084095A4002004
:10248C0000000A4000E100E0F8580000014801F0AB
:10249C00A3BC00BF00500840054B1A683AB105496F
:1024AC000B6823F00C0343F004030B6010477047D8
:1024BC00B0A4002000C0024078B16FF07F02052369
:1024CC00037082700023827103224370C370037106
:1024DC004371C2710372184670476FF00400704765
:1024EC0008B5FFF7AFF808B5FFF7ACF8014610B127
:1024FC000120FFF749BA6FF004007047014650B154
:10250C00D0F80130D0F809201344B3F5802F05D84A
:10251C000020FFF761BA6FF0040070476FF4E160C0
:10252C00704700002DE9F74F054690468946002973
:10253C0000F09580002A00F0928042EA00031B070D
:10254C0040F08D801318B3F5603F80F08B80FFF75F
:10255C00EFF908B1FFF776F8C5F30F373C460134B5
:10256C00C5EB0434A045DFF808B194BF1FFA88F41A
:10257C00A4B222465946284603F02CF906460028F8
:10258C0044D122464946584602F0DCFB00286CD068
:10259C00374A334699B28C420AD80022114614F0BD
:1025AC000F030ED100293DD102BB2746AA4610E0ED
:1025BC0012F8011BFF2903F10103EBD000220121CA
:1025CC00EDE79AB924F00F04A4B269BB2746AA46DA
:1025DC000B46224649460BEB0300FDF7CBFF3A4670
:1025EC005946504602F0FAFF002836D1A8EB0408F1
:1025FC00B8F5805F2544A144444628BF4FF480546D
:10260C00C5F30F37A4B2B8F1000FB2D1194B0020AB
:10261C0083F82C00FFF7C2F800289BD1304603B09A
:10262C00BDE8F08F002AE1D14FEA073AA5EB073756
:10263C00BBB214FA87F7BFB23BB11A4659465046A3
:10264C00019303F0C7F8019B38B95146012001935F
:10265C0003F064F8019B0028BBD00646D6E76FF068
:10266C000406DBE76FF06406D8E70122314696E7F3
:10267C009494002000C0084013B5FFF759F90446A4
:10268C0008B1FEF7DFFFFFF719FA0C4B204683F871
:10269C002C40FFF783F80028F3D101A8FFF7CEFAFE
:1026AC00044638B90120FFF701F8FFF7CFFC019879
:1026BC00FDF77EFE204602B010BD00BF00C00840F2
:1026CC0008B50120FEF7DAFF002008BD70477047FF
:1026DC0008B5084BD3F8882042F47002C3F8882060
:1026EC00054A9A604FF080431022C3F82022FFF76E
:1026FC00EEFF08BD00ED00E00000000008B510B9C9
:10270C00FFF7F1FEFCE708BD08B5064BC31A5842AB
:10271C005841FFF7F3FF4FF080434FF00062C3F8CE
:10272C00402208BD00000A4070B50646101E18BFB6
:10273C0001200D461446FFF7E1FF0B2D05F10805AE
:10274C008CBF00200120FFF7D9FF56F825203168F7
:10275C00C1F34121C2F30B1302294FEAD27023605B
:10276C0012D0032912D0012901D19B082360C2F396
:10277C0001432371C2F381436371C2F38363C2F3D8
:10278C008072A360227370BD1B09EFE79B09EDE714
:10279C004FF08042D2F8003423F4704343EA003007
:1027AC00C2F8000470470000022810D8094B53F8F7
:1027BC0020301846704783EA5302920302F4804299
:1027CC0042EA53030130B0F5004FF4D9F1E74FF46E
:1027DC008043F8E758590000B0F1004F28D038B3C7
:1027EC00C0F30B038BB1DAB21C2A18BF92004FEA6C
:1027FC00132308BF0F4A03F1FF3318BF02F18042C5
:10280C00DBB214BFC2F880321362000B10D0C0F3DD
:10281C000B0068B1C3B2000A01381C2BC0B202D144
:10282C00044B186270479B0003F18043C3F880028D
:10283C00704700BF00000440800000F180401AB1D6
:10284C004FF00053C0F8003321B94FF08043C0F86B
:10285C00003370470139C0F800137047194988429A
:10286C0005D0194B984202D0184B984228D14FF002
:10287C0080421023C2F830368842D2F800351AD97B
:10288C0003F08071114B984211484FF080730BD1BB
:10289C00D3F8303403400B4343F0404343F48043BC
:1028AC00C2F8003500207047D3F8443403400B4382
:1028BC0043F04043F4E7D2F8003523F08043EFE7D0
:1028CC0001207047001BB700006CDC0200D8B80573
:1028DC00FF3FFF004FF080430348D3F8103613F04E
:1028EC00100F18BF00207047001BB7004FF080433B
:1028FC00D3F81026D20211D4D3F80805D3F8083532
:10290C00074AC3F3441300F01F00D35C01304CF2B0
:10291C00503253434000B3FBF0F070470020704737
:10292C00645900004FF08043D3F81026D2060CD423
:10293C00D3F80005184009D0D3F80035044813F437
:10294C00804F044B08BF184670470020704700BFEB
:10295C0000D8B805006CDC0208B54FF08043D3F802
:10296C00840202281DD0032821D0E8B9D3F8802294
:10297C001AB9BDE80840FFF7ADBFD3F88022012A91
:10298C0011D0D3F88022022A03D1BDE80840FFF70A
:10299C00ADBFD3F88032032B05D1BDE80840FFF75B
:1029AC00C1BF044B186808BDFFF79DFDFCE74FF451
:1029BC000040F8E7E8A40020054B1B6A13F0030362
:1029CC0001D1FFF7C9BF012B024818BF0020704787
:1029DC0000000440001BB70008B54FF08043D3F84B
:1029EC00E832032B0FD8DFE803F00211060ABDE82A
:1029FC000840FFF7B1BFBDE80840FFF76BBFBDE86B
:102A0C000840FFF78FBFFFF76EFDFCE7014B18681E
:102A1C0008BD00BFE8A4002010B54FF08044D4F8E6
:102A2C00A033DBB2FF2B0ED1FFF7D6FFD4F8A023D7
:102A3C000146C2F3072202F5807200230002090E40
:102A4C00FEF720FA10BD0020FCE7000008B5AC3002
:102A5C004FF0804353F82030042B13D8DFE803F0F9
:102A6C0003070B150E00BDE80840FFF733BFBDE8A8
:102A7C000840FFF757BF064B186808BDBDE8084073
:102A8C00FFF7CABFFFF72FFDFCE70020F5E700BFFB
:102A9C00E8A4002008B54FF08043D3F8A82252B91F
:102AAC00FFF740FF4FF08043D3F89833DBB201338C
:102ABC00B0FBF3F008BDD3F8A832012B0ABF024BD0
:102ACC0000201868EEE700BFE8A4002008B509282C
:102ADC0030D8DFE800F0050914182F1C1F23272B12
:102AEC00BDE80840FFF738BFFFF736FF4FF08043D3
:102AFC00D3F88033DBB20133B0FBF3F008BDBDE893
:102B0C000840FFF70FBFBDE80840FFF7E3BE0A4BD4
:102B1C001868F3E7BDE80840FFF7BCBFBDE8084004
:102B2C00FFF7E4BEBDE80840FFF776BFBDE80840FC
:102B3C00FFF742BF0020E1E7E8A400200F4B9842CA
:102B4C0002D80020FFF724BE0D4B984201D801207B
:102B5C00F8E70C4B984201D80220F3E70A4B984255
:102B6C0001D80320EEE7094B984201D80420E9E78D
:102B7C00074B984294BF05200620E3E7001BB700E3
:102B8C0000366E01006CDC0200A24A0400BD010597
:102B9C0000E1F5054FF08043D3F8903203F00703C2
:102BAC00022B06D0032B06D0002B044818BF0020A4
:102BBC007047FFF79BBE4FF400407047001BB700F7
:102BCC002DE9F04F8468E30785B082460F461FD588
:102BDC004068BB69DAF8001083F00803C3F3C00344
:102BEC000293904B994200F216818F4B994240F21E
:102BFC00148114F004040ED18C4B984240F20981DC
:102C0C008B4BB0FBF3F88B4B98420AD9042079E03C
:102C1C00FFF7C0FFDDE7B0F57A6FC0F0FA804FF038
:102C2C00010801254A000195834D13464FF0000B16
:102C3C00A9426AD9029BB0F57A6FC3F1020912D985
:102C4C00884210D87CB109FB00F31D460A46002DC2
:102C5C0066D144F62065AA4205D9B3FBF2F35A1E9D
:102C6C00FE2A98BF9846B8F1010F8CBF00230123B0
:102C7C00B0FBF8F50393B1FBF5F6B6FBF9F6002CB7
:102C8C0076D006FB09F94FEA490909FB0555B5EB66
:102C9C00410F38BF01363B2E49D873085D1C06F036
:102CAC003C03191D3046FFF77FFDC0F3100040F4C4
:102CBC0080204FF08053F8603B6100200122B8F176
:102CCC00020F00F284805D4B33F818607E60BBF11C
:102CDC00020F7ED85A4B13F80B30BB60019B029E3F
:102CEC001B0543EA0643039E43EAC64343EA01132A
:102CFC0043EA852343EA404343EA82433B60002C8A
:102D0C0075D0002005B0BDE8F08F0BF1010BBBF1C5
:102D1C00210F00F08480002619460196134487E7A2
:102D2C00B2FBF5F605FB16262A4635468FE7B6F5B7
:102D3C00804F11D8B6F5005F11D8B6F5006F11D8D9
:102D4C00B6F5FA7F11D806F109014FF480631F25FF
:102D5C00B3FBF1F39900A5E71F250121A2E71F257D
:102D6C0002219FE71F2504219CE71F25082199E7D5
:102D7C00A9FB05592A460846FC604B462146FEF73E
:102D8C0081F811464FEAC32C2A46C8024B464CEA3E
:102D9C005151FEF777F8F602C0F30A0006F4FF264D
:102DAC0006433E61214625462246012087E7F3086B
:102DBC0083EA9603734083EA1613DB01DBB243EA22
:102DCC00560608F10108B8F5807FF0D97EE7802619
:102DDC00F9E7102383EA930636010BF1010B06F099
:102DEC001006BBF1210F46EA5303F3D175E7DAE97C
:102DFC00033213433A691343DAF8142013439AF855
:102E0C0018203B61002A3FF47CAF43F000533B6138
:102E1C0077E7032076E7022074E7012072E70520AC
:102E2C0070E700BF80D1F008A2E111007F841E0082
:102E3C00C0C62D00BF86F42DBF6878044C59000025
:102E4C0052590000F8B54FF080444FF48007C4F895
:102E5C0020760368C4F880354368C4F8883543F499
:102E6C008063C4F888358368C4F88C3543F08003DC
:102E7C00C4F88C35C368C4F8903543F40033C4F8F7
:102E8C0090350369C4F8943543F40023C4F89435A1
:102E9C0083699907054618D0134BD4F89065C4F88C
:102EAC00903503F5003326F40036C4F830760F491C
:102EBC00C4F89035482000F039F8C4F8906546F411
:102ECC000036C4F89065C4F83076AB699A0705D51E
:102EDC004FF08042D2F88435DB07FBD5044B6A698E
:102EEC001A600020F8BD00BFD25D040080D1F0084C
:102EFC00E8A4002041096FF01F0330B503FB010368
:102F0C00012201F5D4754FF0804402FA03F3002836
:102F1C0044F8253006DB044B00F01F0002FA00F0E9
:102F2C0043F8210030BD00BF00E100E008B510B946
:102F3C00FFF7D9FAFCE7A0FB01014FF0FF33834206
:102F4C00074B8B4102D2FFF7CEFAFCE7054A002370
:102F5C00FDF798FF0046A0F101000028FBD108BD49
:102F6C003F420F0000093D00144B2DE9F04153F88E
:102F7C0020301E681E60124B1B5C044653B9114B6B
:102F8C0053F820301B680BB130469847BFF34F8F76
:102F9C00BDE8F081DFF82C800025012707FA05F346
:102FAC00334206D058F8243053F825300BB1304654
:102FBC0098470135072DF1D1E8E700BF845900008F
:102FCC00ECA40020F4A4002008B5104B984212D0B9
:102FDC0003F58053984210D003F5F83398420ED085
:102FEC0003F5003398420CD003F5805398420AD075
:102FFC00FFF779FAFCE7002008BD0120FCE702206E
:10300C00FAE70320F8E70420F6E700BF0080004051
:10301C00002808DB0123420900F01F0003FA00F02E
:10302C00014B43F82200704700E100E038B505463B
:10303C000C4611B9FFF757FAFCE7FFF7C5FF154B24
:10304C0033F81030DAB2B3F5007F4FEA13214FF0AA
:10305C00010303FA02F335BF01F188020E4A4FF067
:10306C008041536138BF41F822302846FFF7ACFF4E
:10307C000A4B53F8200000F0E9FD637822789B009E
:10308C0003F00C0302F0030213432B676368EB603D
:10309C0038BD00BF9859000000000440A85900003A
:1030AC0010B50446FFF790FF636823F001036360DB
:1030BC00144B33F81030B3F5007FDAB24FEA13211A
:1030CC004FF0010303FA02F335BF01F190020E4AEF
:1030DC004FF08041936138BF41F822300B4B1B56A7
:1030EC00002B0DDB5A09012103F01F0301FA03F336
:1030FC002032074941F82230BFF34F8FBFF36F8F57
:10310C0010BD00BF9859000000000440A2590000F7
:10311C0000E100E02DE9F04105460C461646FFF7AC
:10312C0053FF6A6904EB440107238B4022EA030C2A
:10313C003379327A01F1010E03FA0EF396F805E0B9
:10314C0001F102080EFA08FE02FA01F143EA0E033D
:10315C000B4343EA0C036B61EB6B67003021B94006
:10316C0023EA0101B3790437BB400B430127F17902
:10317C00A740A14023EA07030B430634EB633368F3
:10318C0045F824302F602AB1034BBDE8F0411856A6
:10319C00FFF73EBFBDE8F081A259000008B5002042
:1031AC00FFF7E2FEBFF34F8F08BD08B50120FFF714
:1031BC00DBFEBFF34F8F08BD08B50220FFF7D4FE2E
:1031CC00BFF34F8F08BD08B50320FFF7CDFEBFF34B
:1031DC004F8F08BD08B50420FFF7C6FEBFF34F8F15
:1031EC0008BD08B510B9FFF77EF9FCE708BD000073
:1031FC0038B5054D431B044658425841FFF7F1FFC3
:10320C00601B18BF012038BD002008402DE9F84391
:10321C00FFF7EEFF294B502606FB003600274FF038
:10322C00010856F8044B002C43D0257BA368690990
:10323C00583305F01F0553F82120EA40D2070DD56D
:10324C00D4F8009008FA05F243F82120B9F1000FE8
:10325C0004D06168002301222046C847A368227B62
:10326C006033520953F82210E940C8070DD5D4F841
:10327C00009008FA05F143F82210B9F1000F04D0C0
:10328C00012361681A462046C847A368227B403355
:10329C00520953F82210E940C9070AD508FA05F576
:1032AC0043F82250256825B161680223002220468C
:1032BC00A8470137142FB4D1BDE8F88308A5002026
:1032CC0008B50348FFF7A2FFBFF34F8F08BD00BF3F
:1032DC000020084008B510B9FFF705F9FCE708BD58
:1032EC00084B10B5002453F8042B824202D0013451
:1032FC00082CF8D1072C8CBF00200120FFF7EAFF27
:10330C00204610BDBC59000038B50C460546FFF7E9
:10331C00E7FF1F4B33F81030B3F5007FDAB24FEAFA
:10332C0013214FF0010303FA02F335BF01F18802B8
:10333C00184A4FF08041536138BF41F82230164B88
:10334C0053F8200000F082FC44B1042C14D8D5F8BA
:10335C00F83FE21CD34013F0010F14D0D5F8F83F1E
:10336C001B0705D5D5F8F83F03F00703A3420CD192
:10337C00C5F8F84F002038BD052C04D1D5F8F83F1E
:10338C0013F0800FE9E70320F5E70120F3E700BF16
:10339C00DC59000000000440EC59000010B5074C4B
:1033AC002068003818BF0120FFF794FF044A2368F7
:1033BC00116804489847BFF34F8F10BD78A50020C3
:1033CC0058A500200060084010B5074C6068003814
:1033DC0018BF0120FFF77EFF044A63685168044858
:1033EC009847BFF34F8F10BD78A5002058A500203B
:1033FC000070084010B5074CA068003818BF0120B9
:10340C00FFF768FF044AA368916804489847BFF324
:10341C004F8F10BD78A5002058A5002000800840D3
:10342C0010B5074CE068003818BF0120FFF752FFB9
:10343C00044AE368D16804489847BFF34F8F10BD26
:10344C0078A5002058A500200090084010B5074C26
:10345C002069003818BF0120FFF73CFF044A23699C
:10346C00116904489847BFF34F8F10BD78A5002011
:10347C0058A5002000A0084010B5074C6069003822
:10348C0018BF0120FFF726FF044A636951690448FD
:10349C009847BFF34F8F10BD78A5002058A500208A
:1034AC000060094010B5074CA069003818BF012016
:1034BC00FFF710FF044AA369916904489847BFF3CA
:1034CC004F8F10BD78A5002058A500200070094032
:1034DC0010B5074CE069003818BF0120FFF7FAFE61
:1034EC00044AE369D16904489847BFF34F8F10BD74
:1034FC0078A5002058A500200080094008B5074B8E
:10350C00984206D003F58053984204D0FEF7EBFFA7
:10351C00FCE7002008BD0120FCE700BF00200040B4
:10352C0008B5FFF7EBFF104B002243F820200F4BA0
:10353C0033F81030B3F5007FDAB24FEA13214FF0B5
:10354C00010303FA02F335BF01F18802084A4FF078
:10355C008041536138BF41F82230064B53F82000AC
:10356C00BDE8084000F072BB98A500200C5A000082
:10357C0000000440145A000010B50446FFF7BEFFCB
:10358C00104B1B56002B0CDB03F01F005A090121BA
:10359C00814020320C4840F82210BFF34F8FBFF30C
:1035AC006F8F2268002B42F00102226009DB5A095E
:1035BC00012103F01F0301FA03F36032024941F8C1
:1035CC00223010BD105A000000E100E038B505466D
:1035DC00FFF794FF04462846FFF7CEFF0F4B00225F
:1035EC0043F824200E4B53F8240000F02FFB0D4B16
:1035FC0033F81430B3F5007FDAB24FEA13214FF0F1
:10360C00010303FA02F335BF01F19002064A4FF0B1
:10361C008041936138BF41F8223038BD98A5002015
:10362C00145A00000C5A000000000440064A08B569
:10363C00136843F001031360044B1B6803B19847F4
:10364C00BFF34F8F08BD00BF0020004098A500209D
:10365C00064A08B5136843F001031360044B5B681A
:10366C0003B19847BFF34F8F08BD00BF0030004037
:10367C0098A50020012808B502D9FEF734FFFCE715
:10368C000A4B33F810100A0AB1F5007FC8B228BFF4
:10369C00074A4FF001033CBF88324FF0804103FAD8
:1036AC0000F334BF41F82230536108BD1C5A0000AE
:1036BC00000004400846FFF7DDBFF8B51E4604467F
:1036CC00084617460D46FFF7D5FF3378012202FA5C
:1036DC0007F7A8003BB9044404F50054226822EA19
:1036EC0007022260F8BD73784BB905F50A6544F8FA
:1036FC002570044404F5005422683A43F1E705F5BB
:10370C000865F4E7004B18470502000330B5142296
:10371C008BB005460C460DEB02000021CDE90311E0
:10372C0001F042FB3223684605A9CDE9003502942D
:10373C00FFF7E8FF059810B100F51F5018300BB0DB
:10374C0030BDF0B515468BB0142207460E460DEB76
:10375C00020000211C4601F027FB3323684605A913
:10376C00CDE90037CDE902654FF47A73B4FBF3F47D
:10377C000494FFF7C7FF059810B100F51F501830DF
:10378C000BB0F0BD70B514468AB0142206460D4637
:10379C000DEB02000021049101F006FB3423684676
:1037AC0005A94FF47A72CDE90036B4FBF2F4029518
:1037BC000394FFF7A7FF059810B100F51F501830C0
:1037CC000AB070BD70B514468AB0142206460D4678
:1037DC000DEB02000021049101F0E6FA3B23684650
:1037EC0005A94FF47A72CDE90036B4FBF2F40295D8
:1037FC000394FFF787FF059810B100F51F501830A0
:10380C000AB070BD002808DB0123420900F01F003C
:10381C0003FA00F0014B43F82200704700E100E08E
:10382C0000280DDB4309012200F01F0002FA00F012
:10383C002033044A42F82300BFF34F8FBFF36F8F3E
:10384C00704700BF00E100E008B510B9FEF74BFE71
:10385C00FCE708BD002809DB4309012200F01F002A
:10386C0002FA00F06033024A42F82300704700BFAE
:10387C0000E100E010B50446003818BF0120FFF746
:10388C00E3FFB4F1402F10D120220021084801F0B1
:10389C008BFA4FF080434FF48022C3F82022122081
:1038AC0000F0D4F9034B236310BD0023FBE700BFEA
:1038BC00A0A5002000B66DDBF8B50446003818BF93
:1038CC00012015461F460E46FFF7BEFFB4F1402FF0
:1038DC004FF0010000FA06F008BF0D4BE0612062CA
:1038EC0008BF43F82670236815F0100F14BF02466A
:1038FC00002223EA000315F0110F43EA02032360B0
:10390C0014BFA060E060AB074CBF6061A061F8BD64
:10391C00A0A500200346806A000E1CBFDA6ADA629A
:10392C0070470268012303FA01F10A42436A02D18B
:10393C00194218BF4162704737B50546003818BFA9
:10394C0001200C46FFF780FF28462146FFF7E9FFD0
:10395C00074B18570190FFF77DFF019810F1800F6E
:10396C0004D003B0BDE83040FFF74CBF03B030BD0E
:10397C00205A000070B50446003818BF0120FFF72C
:10398C0063FFB4F1402F14D10A4E002416F9015BE9
:10399C0015F1800F02D02846FFF742FFE1B24FF03D
:1039AC004020FFF7BEFF01342846FFF753FF082CD9
:1039BC00ECD170BD205A000038B50546003818BF50
:1039CC0001200C46FFF740FFB5F1402F11D1094BF8
:1039DC001D5715F1800F02D02846FFF721FF214615
:1039EC004FF04020FFF79DFF2846BDE83840FFF719
:1039FC0031BF38BD205A000010B50446003818BF3E
:103A0C000120FFF721FF2046FFF7B4FFB4F1402F50
:103A1C000FD120220748002101F0C6F94FF0804356
:103A2C004FF48022BDE81040C3F84022122000F071
:103A3C000DB910BDA0A5002008B54FF04020FFF730
:103A4C0069FF084B1B6801460BB1002098474FF0EB
:103A5C004020016811F0010101D1FFF762FFBFF3B3
:103A6C004F8F08BDA0A5002008B54FF04020FFF7F0
:103A7C0051FF084B5B6801460BB1012098474FF092
:103A8C00402003689B0702D40121FFF74AFFBFF3D4
:103A9C004F8F08BDA0A5002008B54FF04020FFF7C0
:103AAC0039FF084B9B6801460BB1022098474FF039
:103ABC00402003685B0702D40221FFF732FFBFF3FB
:103ACC004F8F08BDA0A5002008B54FF04020FFF790
:103ADC0021FF084BDB6801460BB1032098474FF0E0
:103AEC00402003681B0702D40321FFF71AFFBFF322
:103AFC004F8F08BDA0A5002008B54FF04020FFF760
:103B0C0009FF084B1B6901460BB1042098474FF085
:103B1C0040200368DB0602D40421FFF702FFBFF349
:103B2C004F8F08BDA0A5002008B54FF04020FFF72F
:103B3C00F1FE084B5B6901460BB1052098474FF02D
:103B4C00402003689B0602D40521FFF7EAFEBFF371
:103B5C004F8F08BDA0A5002008B54FF04020FFF7FF
:103B6C00D9FE084B9B6901460BB1062098474FF0D4
:103B7C00402003685B0602D40621FFF7D2FEBFF398
:103B8C004F8F08BDA0A5002008B54FF04020FFF7CF
:103B9C00C1FE084BDB6901460BB1072098474FF07B
:103BAC00402003681B0602D40721FFF7BAFEBFF3BF
:103BBC004F8F08BDA0A5002008B54FF6E073184242
:103BCC0002D0FEF790FCFCE781B20123B0F5003F78
:103BDC004FEA104203FA01F305D3084A5360116807
:103BEC001942FCD008BD920002F18042C2F820318B
:103BFC00D2F800111942FBD0F4E700BF00000440DA
:103C0C0008B54FF6E073184202D0FEF76CFCFCE7E7
:103C1C0081B20123B0F5003F4FEA104203FA01F3E1
:103C2C0006D3094A9360116833EA0101FBD008BD41
:103C3C00920002F18042C2F84031D2F8001133EA0E
:103C4C000101FAD0F3E700BF0000044010B50446B0
:103C5C00FFF7B2FF2046BDE81040FFF7D1BF08B513
:103C6C0010B9FEF740FCFCE708BD00007FB5044628
:103C7C00003818BF0120FFF7F2FF224B6A4603F110
:103C8C00080618685968154603C50833B3422A4616
:103C9C00F7D118681B7928602B712388A3F2B272B4
:103CAC00812A2AD8A1784A1E0B2A26D82279172ACB
:103CBC0023D862793B2A20D8A2793B2A1DD89A07AF
:103CCC0006D16420B3FBF0F200FB123292B23AB987
:103CDC004FF4C872B3FBF2F002FB10339BB213B972
:103CEC001D238DF8023001F110020DEB0201E37877
:103CFC0011F8102C9A4200D313B9002004B070BDF7
:103D0C000120FBE77C58000070B50446003888B0F1
:103D1C0018BF0120FFF7A3FF1B4B01AA03F11806E4
:103D2C0018685968154603C50833B3422A46F7D1BB
:103D3C001B882B80E3782288A078A3F52F2340F2F0
:103D4C006D11A3F6B62301FB023308A901EB400168
:103D5C0003EB920331F81C1C92070B4403F1FF3167
:103D6C0002D1022898BF991E63792079C3EB031303
:103D7C004FF461629B0002FB0033A07903440348BB
:103D8C0000FB013008B070BD8A5800008051010062
:103D9C004FF080434FF40002C3F82022036823F055
:103DAC0001030360036823F480730360704738B524
:103DBC000546081E18BF01200C46FFF750FF204691
:103DCC00FFF754FF28B12046FFF79EFFA8600020A4
:103DDC0038BD0420FCE70000F8B50B4B0B4FD3F8B3
:103DEC00F440D3F8F06000252640E30703D557F8DC
:103DFC00253003B19847640802D001350A2DF4D15F
:103E0C00014BC3F8F460F8BD00500840C0A5002079
:103E1C0008B510B9FEF767FBFCE708BD024BC31AE7
:103E2C0058425841FFF7F4BF00500840426808B5AB
:103E3C0042F004124260FFF7F1FF4FF0804304227E
:103E4C00C3F8442208BD000008B5034B03481B68A7
:103E5C009847BFF34F8F08BDE8A5002000500840DD
:103E6C0008B510B9FEF73FFBFCE708BD084B10B5D1
:103E7C00002453F8042B904202D00134082CF8D1C2
:103E8C00072C8CBF00200120FFF7EAFF204610BD55
:103E9C00285A000010B50C46FFF7E8FF014B1C54E4
:103EAC0010BD00BFFCA5002010B50446003818BF9B
:103EBC000120FFF7D5FF18220021204600F074FFE7
:103ECC0001236370024BA3600723237310BD00BF53
:103EDC0020A1070010B50446003818BF0120FFF7D9
:103EEC00BFFF0F23C4F8143ED4F8003E23F4405314
:103EFC00C4F8003ED4F8003423F00103C4F80034B5
:103F0C0010BD70B50E461446054618B1F9B1101E19
:103F1C0018BF0120FFF7A4FFDDB1D6B1CCB10A2246
:103F2C005443B4FBF6F30533B3FBF2F3013BB3F5A7
:103F3C00803F10D2D5F82424120C1204C5F8242486
:103F4C00D5F824241343C5F82434002070BD08464A
:103F5C00E0E70420FAE741F2E350F7E7F8B50D4645
:103F6C001746044628B1002900F08E80101E18BF99
:103F7C000120FFF775FF002C00F08D80002D00F064
:103F8C008A80002F00F0878002212046FFF7BCF9C1
:103F9C000646002876D1A9683A462046FFF7B1FFBD
:103FAC00064600286ED12046FFF760FFD4F8003497
:103FBC002A7823F47B6323F00D0343EAC2132A7996
:103FCC00D20002F008021343EA8902F47062134330
:103FDC00EA78120102F010021343AA78520102F09F
:103FEC002002134343F00403C4F800342B4B2A7B08
:103FFC0003F8102003EB40006B7B4370D4F8003EB9
:10400C0043F44033C4F8003ED4F8003E43F00303BD
:10401C00C4F8003E2B7C697CD4F8082E1B020904E2
:10402C0001F4702122F4702203F4706322F47062A4
:10403C000B43134343F00303C4F8083E0120FFF77E
:10404C000FFF0120FFF70CFFEB7C2A7D1B011202F6
:10405C0002F47062DBB21343AA7C02F00F0213432A
:10406C006A7D120392B21343C4F80434FF21204634
:10407C00FFF710FF6B784BB1D4F8003443F0010319
:10408C00C4F800343046F8BD084672E7D4F8003462
:10409C0023F00103F4E70426F4E700BFECA50020AD
:1040AC002DE9F04F894685B0044630B161B10B68FB
:1040BC0063B94868003818BF0120FFF7D1FE3CB93E
:1040CC00042005B0BDE8F08F0846F6E70120F4E7C0
:1040DC00B9F1000FF4D0D9E900560DB9002EEFD08C
:1040EC00D4F800AE002D52D0D9F80C70002E50D060
:1040FC00D9F80C802046FFF7B9FE4D4A12F810C0D3
:10410C00BCF1070F03D9D9F80C30D907D8D44FEA32
:10411C005A0A0AF018030393D4F8003ED9F8081091
:10412C00DFF8149143F44033C4F8003ED4F8043E55
:10413C0002EB400243F00303C4F8043E537803F14E
:10414C001002012393404FEA0C6201F4001EDB4382
:10415C0002F0706242EA0E0203F47023134301F47E
:10416C0080120192DFF8CCE04FEADC0202920022CE
:10417C0048EA070A5AEA02010DD12E4BD4F8042E54
:10418C00D20652D4013BF9D141F2E45099E72F46C3
:10419C00ACE7B046AEE7BEF1010EF5D0D4F804AEF4
:1041AC001AF0400F15D0D4F830AEB8F1000F0FD084
:1041BC00BCF1080F86F800A087BF4FEA1A2A86F8D0
:1041CC0001A0013608F1FF3884BFA8F102080236BD
:1041DC00013AD4F804AE1AF0200FC9D003998A42E0
:1041EC00C6D202F1010A87B902990AFA01FBC3454A
:1041FC00BED819F8002019F800B042EA0B2211D0F1
:10420C001A43C4F8202E5246B2E7BCF1080F94BFF3
:10421C0007F1FF37023F2A788CBF35F8022B0135A6
:10422C00002FEDD101990B43EAE7002049E700BFCD
:10423C00ECA5002080841E00FCA5002008B510B958
:10424C00FEF751F9FCE708BD10B50446003818BF5D
:10425C000120FFF7F3FFA3681B07FCD50F23C4F85D
:10426C00143ED4F8003E23F44053C4F8003E2368B7
:10427C0023F00103236010BD10B50446003818BFAD
:10428C000120FFF7DBFF10220021201D00F08CFD28
:10429C004FF4E13323600123A37110BD2DE9F843E2
:1042AC000C461546064618B1C9B1101E18BF0120A0
:1042BC00FFF7C4FF002E51D0002C4FD0002D4DD055
:1042CC0033681B050DD5336813F480431EBFB5FB53
:1042DC00F4F505F1FF3535620020BDE8F88308469A
:1042EC00E6E74FF00A084FF0FF300F2708FB05F9FF
:1042FC004FEA041C86463946B9FBFCF2053AB2F586
:10430C00202F01F101030ED2B2FBF8F202FB0333B2
:10431C00B5FBF3F39C4234BF1B1BE31A73453EBF42
:10432C0010460F469E4601390729ACEB040CE3D12D
:10433C00421C07FB0222B5FBF2F5AC4234BF2D1B2D
:10434C00651B6421B4FBF1F404EB4404AC4207D3C9
:10435C00B0F5803F04D2B7623062BDE70420BCE701
:10436C0041F25160B9E7F8B50D461746044628B13D
:10437C00002900F08B80101E18BF0120FFF75EFF94
:10438C00002C00F09180002D00F08E80002F00F0AA
:10439C008B8001212046FEF7B7FF0646002873D11B
:1043AC006B7AD3B1D4F8003E43F00113C4F8003E4D
:1043BC00D4F8083E23F47063C4F8083E6B7BD4F841
:1043CC00082E1B0203F470631343C4F8083ED4F8A0
:1043DC00083E43F00103C4F8083E2B7AD3B1D4F85D
:1043EC00003E43F00213C4F8003ED4F8083E23F418
:1043FC007023C4F8083EAB7BD4F8082E1B0403F4DE
:10440C0070231343C4F8083ED4F8083E43F002036B
:10441C00C4F8083EEA7AE97BE879D30143EAC03371
:10442C00880200F400600343287B43EA4023287988
:10443C00000100F0300003436879800100F0400077
:10444C000343A879800000F00C00890301F480413B
:10445C0003430B43297C090301F480510B4343F0C4
:10446C000103296823609AB14FF41653B3FBF1F39F
:10447C005943B1F5165F19D1013B2362AB7A7BB17D
:10448C00636843F4807363603046F8BD084675E793
:10449C003A462046FFF702FF0028EFD00646F3E726
:1044AC00636823F48073EEE70426EDE741F251666E
:1044BC00EAE7000070B50D461646044610B1081E1A
:1044CC0018BF0120FFF7BAFEBCB1B5B1D4F8003E5D
:1044DC00D80712D52E44B5420C4B05D1A268120751
:1044EC000DD4013BFAD105E0D4F8042E910608D482
:1044FC00013BF9D141F2526070BD0420FCE7002071
:10450C00FAE715F8013BC4F8203EE4E780841E006E
:10451C0070B50C461646054618B139B1101E18BFB9
:10452C000120FFF78BFE1DB9042070BD0846F8E78B
:10453C00002CF9D0002EF7D0706818B13068003814
:10454C0018BF0120FFF77AFE7268002AECD03168A0
:10455C000029E9D094F82C30012B11D0D5F8103E5D
:10456C0003F00F03C5F8143E2160A260626043F0B3
:10457C000403012284F82C200020C5F8103ED4E757
:10458C0041F24460D1E7000008B5044A044B1168BD
:10459C001B6804489847BFF34F8F08BD04A6002042
:1045AC0008A6002000E0004005289ABF024B1856D0
:1045BC004FF0FF30704700BF485A0000034B19689A
:1045CC004FF47A735843FEF7B1BC00BF00080020CB
:1045DC000549CB68CA689BB292B29342F9D1034A9F
:1045EC001068C01A704700BF00C0024004080020C9
:1045FC002A4970B40A782A4C2A4D236882B94FF69E
:10460C00FF7213442360284B2A60196821F0400183
:10461C001960DA601A6842F040021A6070BC704788
:10462C00224E32684FF6FF70D2B90A70204A2860C9
:10463C001268B2FBF0F1C1EB0141521A1344236032
:10464C00194B1A6822F040021A60D8601A6842F0BE
:10465C0040021A60174B1B68002BDFD070BC184748
:10466C001918B2F5803F104B21600AD3A2F57F4296
:10467C00FF3A326028601A6822F040021A60D86053
:10468C00C8E72A60196821F040011960DA601A68DD
:10469C0042F040021A6000233360BFE70CA60020F2
:1046AC0018A600200408002000C0024014A6002018
:1046BC000808002010A600204FF0804238B5D2F830
:1046CC000C35184C43F00103C2F80C352046FFF7AB
:1046DC005FFB4FF6FF73E360236823F00C0343F09A
:1046EC0008032360236843F0200323600E4BDB6830
:1046FC000E4B002583F81D534FF000521A601D20FD
:10470C00FEF7F8FB236843F080032360236843F033
:10471C0040032360236823F00C0343F02003236041
:10472C00284638BD00C0024000ED00E000E100E08A
:10473C0000207047092838B5044601D8002934D127
:10474C001B4B1C4D01221A701B4B19602B6823F05C
:10475C0040032B602B6823F02C032B60FFF738FFF2
:10476C00164A13681844164B1060B4F5803F1C6051
:10477C00144A154B14D3A4F57F444FF6FF71FF3C3C
:10478C00E96011601C600B4A136843F0400313602E
:10479C00136823F00C0343F020031360002038BD92
:1047AC00EC60146000221A60EDE76FF00400F6E78D
:1047BC000CA6002000C0024010A6002018A6002065
:1047CC00080800200408002014A60020044B002038
:1047DC001870044B1860044B1860044B1860704739
:1047EC000CA6002014A600200808002010A600200B
:1047FC0010B5044648B1FFF7EBFE054B054A1B68A4
:10480C00034423601360002010BD6FF00400FBE72D
:10481C0018A600201CA6002007EE900A9FED077A30
:10482C00DFED076AF8EE677A67EE877A87EEA67A8D
:10483C00FCEEC77A17EE900A704700BF0000804468
:10484C0000007A44084B0522C3F8142E0A22C3F840
:10485C00102E064BDB68064B002083F810034FF438
:10486C0080321A60FFF7A0BE0080084000ED00E027
:10487C0000E100E010B586B004461422002101A826
:10488C0000F092FA002C51D02378022B4ED863788A
:10489C00012B4BD8274B00224FF487701A80FDF761
:1048AC009BFF2548FFF7D2F94FF0804323494FF483
:1048BC00005240F28110C3F82022486240F291105D
:1048CC000862C3F8402201A8FFF7D6FC637833B323
:1048DC00012B24D02378012B24D0022B24D00BB90C
:1048EC008DF808306368019340F20113ADF80C3079
:1048FC0001238DF80A30022000238DF811308DF839
:10490C001230FEF7A3F801A902460D48FFF72BFD64
:10491C00FFF74AFE08B9FFF795FF06B010BD8DF8FA
:10492C000930D7E70223DBE70323D9E76FF0040054
:10493C00F3E700BF28AA00200D0001000010004082
:10494C000080084008B51448FFF77EFC13494FF06F
:10495C0080434FF400524FF48030C3F84422C1F826
:10496C008000BFF34F8FBFF36F8FC1F880010C49EC
:10497C00C3F820224FF4C07048620862C3F840228A
:10498C000848FEF78DFB084B00201880074B186079
:10499C00074B186008BD00BF0080084000E100E034
:1049AC00001000400080004028AA002020AA00200F
:1049BC0024AA002000B58FB0C8B1C1B14AB90A46CB
:1049CC0001460C48FFF776FD0FB05DF804EBFFF7DE
:1049DC00EBBD094BCDE900011A6002A96A460548F6
:1049EC00FFF796FDFFF7E0FD0FB05DF804FB6FF0ED
:1049FC000400F9E70080084024AA002018B1034BFA
:104A0C001860002070476FF00400704720AA002047
:104A1C00F0B52E4BD3F8042E900787B006D50222A2
:104A2C00C3F8042EBFF34F8F07B0F0BDD3F8101EA0
:104A3C00490709D5D306F5D5254B1B6813B9FDF7E6
:104A4C0052FDFCE79847EDE712F0C00FEAD0214E7B
:104A5C00D3F8307E3588B5F5806FE3D21E4C65BB3C
:104A6C0001A920468DF804500295FEF7DFFA40F2BA
:104A7C0001130120ADF81030FEF728F800EB800090
:104A8C00FBF754FF154B0022FCF7F4F8FCF7DAF9AE
:104A9C000123039003AA294620468DF81430ADF863
:104AAC001250FEF737FB636843F0010363600C4A56
:104ABC003388D75401333380B4E7636843F002037F
:104ACC006360636823F00203F0E700BF00800840D6
:104ADC0024AA002028AA00200080004000408F401B
:104AEC0020A600200C4A38B513681360DB0710D5DC
:104AFC000A4D298869B10A4C0823C4F8143E094BA5
:104B0C001B680BB10848984700232B800823C4F876
:104B1C00103EBFF34F8F38BD0080004028AA002004
:104B2C000080084020AA002020A6002030B5BAB191
:104B3C00B1B1A8B10C4C0D4B24681B680C4D1C4436
:104B4C000C4B1B68E31A1B0A043B03600A482B60DE
:104B5C00A4EB03230360002010230860136030BD16
:104B6C006FF00400FBE700BF545A0000585A0000D5
:104B7C0030AA0020505A00002CAA0020EFF310821B
:104B8C0072B605490B681BB9044802F001020260B9
:104B9C0001330B60704700BF38AA002034AA0020F4
:104BAC00074A08B5136813B9FDF79DFCFCE7013BF8
:104BBC0013601BB9034B1B6803B962B608BD00BF79
:104BCC0038AA002034AA002000BEFEE74FF0804235
:104BDC0010B5374B374CC2F83036374B0B21A0424F
:104BEC0059609960196109D806211960D960D2F809
:104BFC00003423F47043C2F8003410BD2F4CA04293
:104C0C0009D807211960D960D2F8003423F4704315
:104C1C0043F48053EFE72A4CA04209D808211960CD
:104C2C00D960D2F8003423F4704343F40053E2E724
:104C3C00244CA04201D80921F1E7234CA04209D809
:104C4C000A211960D960D2F8003423F4704343F47C
:104C5C004053D0E71D4CA042F3D91D4CA04208D8BC
:104C6C001960D960D2F8003423F4704343F48043C4
:104C7C00C1E7184988420AD80C2119609960D9609B
:104C8C00D2F8003423F4704343F4A043B3E7124941
:104C9C00884201D80D21F0E70E2119609960D96086
:104CAC00D2F8003423F4704343F4C043A3E700BFAD
:104CBC0004000038001BB7000000024000366E01F3
:104CCC0000512502006CDC020087930300A24A0409
:104CDC0000BD010500D8B80500E1F50508B50021B7
:104CEC00044600F0BDF8044B1868C36B03B1984739
:104CFC002046FFF769FF00BF5C5A000070B50D4EEF
:104D0C000D4D761BB61006D0002455F8043B01342B
:104D1C009847A642F9D1094E094D761B01F020F8AF
:104D2C00B61006D0002455F8043B01349847A6422F
:104D3C00F9D170BD8C5D00008C5D0000945D0000AD
:104D4C008C5D0000032A70B515D940EA010C1CF0EB
:104D5C00030F04460B4621D1194620460E68056800
:104D6C00B54204F1040403F1040317D1043A032AF5
:104D7C0020461946F0D8541EA2B100F1FF3C01396F
:104D8C0001E0C3180CD01CF801EF11F8012F964567
:104D9C00A4EB0C03F5D0AEEB020070BD541EECE797
:104DAC00184670BD104670BD830730B548D0541EF0
:104DBC00002A3FD0CAB2034601E0013C3AD303F8C3
:104DCC00012B9D07F9D1032C2DD9CDB245EA052530
:104DDC000F2C45EA054536D9A4F1100222F00F0C30
:104DEC0003F1200EE6444FEA121C03F1100242E9D3
:104DFC00045542E9025510327245F8D10CF101020A
:104E0C0014F00C0F03EB021204F00F0C13D0ACF1E6
:104E1C00040323F003030433134442F8045B93426A
:104E2C00FBD10CF003042CB1CAB21C4403F8012BC7
:104E3C009C42FBD130BD64461346002CF4D1F9E7FB
:104E4C0003461446BFE71A46A446E0E7024B13B1EB
:104E5C00024800F06BB8704700000000454F00009E
:104E6C002DE9F84F2F4B2DED028B834618680F461A
:104E7C0000F078F82C4BD3F80080D8F84861AEB12C
:104E8C0008EE10BA4FF001094FF0000A7468651E65
:104E9C000CD4013406EB840487B1D4F80031BB4246
:104EAC000CD0013D6B1CA4F10404F5D1BDEC028BBC
:104EBC001C4B1868BDE8F84F00F056B873682268B0
:104ECC00013BAB420CBF7560C4F800A0002AE8D0CF
:104EDC00D6F88801D6F804B009FA05F101420BD1D5
:104EEC00904772685A4513D1D8F84831B342D8D09C
:104EFC001E46002ECAD1D9E7D6F88C0101420CD13E
:104F0C00D4F8801018EE100A904772685A45EBD00E
:104F1C00D8F84861002EB9D1C8E7D4F88000904782
:104F2C00DFE700BF380C00205C5A0000002301466C
:104F3C001A46184600F01AB838B5084B084D5B1BDA
:104F4C009C1007D0043B1D44013C55F8043998478C
:104F5C00002CF9D1BDE8384000F008BF985D000086
:104F6C00945D0000704700BF704700BF2DE9F0470B
:104F7C00DFF880A00646DAF8000098460F46914606
:104F8C00FFF7F0FF1A4B1B68D3F8484124B3656850
:104F9C001F2D26DC5EB96B1C0235DAF8000063604D
:104FAC0044F82570FFF7E0FF0020BDE8F08704EB24
:104FBC0085010123C1F88890D4F88821AB401A43AD
:104FCC00022EC4F88821C1F80881E4D1D4F88C21D0
:104FDC001343C4F88C31DEE703F5A674C3F84841DB
:104FEC00D5E7DAF80000FFF7BFFF4FF0FF30DCE742
:104FFC005C5A0000380C002010B5074C237843B9DC
:10500C00064A07490748FFF791FD08B901232370A9
:10501C0010BD0020FCE700BF3DAA002040AA0020E4
:10502C0048AA002044AA002010B59208002351F889
:10503C00234024BA40F8234001339A42F7D110BDE3
:10504C002DE9F041C8B04022044608A8FFF7ECFF58
:10505C00054602461020916B17464FEAF14383EA4E
:10506C00714383EA9123796A3F6852F8046F39449B
:10507C000B444FEAB64181EAF61181EAD6010130C0
:10508C000B444028D363E6D123466E4604F1200737
:10509C0018685968324603C20833BB421646F7D12A
:1050AC00344E002303F1440202F0070203F14700DF
:1050BC005DF822C056F804EB03F1460202F0070239
:1050CC0000F007005DF8227055F8042B4FEAFC2124
:1050DC0096445DF8202081EABC11724481EA7C611F
:1050EC00114403F1450202F007025DF822207A40D8
:1050FC0002EA0C027A400A4403F007015DF82180B1
:10510C0003F1410101F007015DF821C003F14201F7
:10511C0001F007015DF821E003F1430101F0070103
:10512C00013B5DF8217017444DF821704CEA0E07D5
:10513C004FEA783181EAB80107EA08070CEA0E0C4D
:10514C0081EAB85147EA0C0739440A4413F1400F7D
:10515C004DF82020A6D1221F6B461C3452F8041F98
:10516C0053F8040B944201441160F7D148B0BDE8E8
:10517C00F08100BF605A00000023C0E908330B4ADD
:10518C000B4B0C49DFF83CC0C0E900230A4BC0E9CB
:10519C0002130A4BC0E904C3094B836103F1745336
:1051AC00A3F52303A3F69243C361704767E6096A2C
:1051BC0085AE67BB72F36E3C3AF54FA58C68059BC8
:1051CC00ABD9831F7F520E512DE9F843436A144625
:1051DC008846510FD200C3F3C5079B1828BF026A3B
:1051EC00436224BF01320262036AC7F140060B44DA
:1051FC0005460362A64207F12800284405D9224639
:10520C004146BDE8F843FBF7B5B93246414605F1D6
:10521C002809FBF7AFF949462846403CFFF710FF39
:10522C00B0443C44264608EB04073F2EA7EB06018E
:10523C0008D8A1096FF03F0202FB0142484608EB77
:10524C008111DEE72846FFF7FBFE403EEDE700004C
:10525C00F0B51A4B93B002AA06460C4603F1400C6B
:10526C00174618685968154603C5083363452A461E
:10527C00F7D104F1200168460822FFF7D5FE626AD7
:10528C00C2F3C502372A94BFC2F13802C2F17802C8
:10529C0039462046FFF798FF694620460822FFF75B
:1052AC0093FF214630462022FFF7BEFE68220021E4
:1052BC00204613B0BDE8F040FFF776BDA4580000BF
:1052CC00F0B500010C1D1431231F16181D7816F8AB
:1052DC00017B7D4003F8015BA342F7D11C1D8C427E
:1052EC0000F10400F0D1F0BDC30903EB430303EB61
:1052FC00C30383EA4000C0B270470000F0B501F16F
:10530C00100203460C781C704C785C708C789C7086
:10531C00CC78DC700431914203F10403F2D1134ECA
:10532C00134F042212F0030F037B457B847BC17B5C
:10533C0008D116F805C0355D745CF15C9308FB5C14
:10534C008CEA030390F800C083EA0C0303744378DF
:10535C005D40837845745C40C37884740132594055
:10536C002C2AC17400F10400DCD1F0BD6B5C000090
:10537C00605B00002DE9F04F02468DB00C4607EE45
:10538C00900A0A20FFF79CFF231D099304F11003D8
:10539C0009270A93617A637B617361796172617821
:1053AC006171A17A6370A378A170A17BA372A379B8
:1053BC00A171E179A373E378E170E17AE171E17BAA
:1053CC00E172E37325462146002311F82300594E60
:1053DC00305C01F823000133042BF6D1099B013119
:1053EC008B42F1D117EE902A21463846FFF768FF21
:1053FC00002F00F09C8095F800A0EB7807935046A6
:10540C00FFF772FF0190FFF76FFF0290FFF76CFF41
:10541C0095F8019095F8028083464846FFF764FFA3
:10542C000390FFF761FF0490FFF75EFF06464046CE
:10543C00FFF75AFF0590FFF757FF0690FFF754FF51
:10544C00079B0B9301461846FFF74EFF0790FFF79B
:10545C004BFF0890FFF748FFDDE9013283EA020CAD
:10546C00039B039A8BEA0C0C83EA0C0C069B86EAD2
:10547C000C0C83EA0C0C81EA0C0C80EA0C0C0B9BD8
:10548C0089EA0C0C88EA0C0C83EA0C0C85F800C039
:10549C008BEA020C049A82EA0C0C059A86EA0C0C34
:1054AC0082EA0C0C089A81EA0C0C82EA0C0C80EA59
:1054BC000C0C8AEA0C0C029A88EA0C0C83EA0C0C91
:1054CC0085F801C082EA0B0C059A86EA0C0C82EA7C
:1054DC000C0C069A82EA0C0C079A81EA0C0C82EAF4
:1054EC000C0C80EA0C0C8AEA0C0C89EA0C0C83EA92
:1054FC000C03AB70019B83EA0B0B049B83EA0B0B35
:10550C0086EA0B06089B71405140594048408AEA94
:10551C00000A89EA0A090A9B88EA090885F80380C7
:10552C000435AB427FF467AF013FFFB232E70DB0F9
:10553C00BDE8F08F6B5B000037B5174D06238DF877
:10554C0004302B6998470446C8B9AB68012101A8FF
:10555C0098476B69044698478CB92B699847044661
:10556C0068B905238DF804300121AB6801A8984770
:10557C00044620B9EB68012101A8984704466B69E1
:10558C00984734B99DF8043013F0020F034B08BF51
:10559C001C46204603B030BD4CAA0020C4F8FFFFC7
:1055AC0030B5A8B143699BB103698BB183687BB1FA
:1055BC00C3686BB1084C034600F1180518685968AC
:1055CC00224603C20833AB421446F7D1002030BD4B
:1055DC006FF00400FBE700BF4CAA00202DE9F34755
:1055EC0017468946002900F08F80002A00F08C8035
:1055FC0020F07F4802EB0803B3F5801F00F2878090
:10560C00C5B2C5F580759542424E34BFADB295B268
:10561C004FF0020A4FEA18438DF805304FEA182371
:10562C008DF8063000238DF803308DF804A0336913
:10563C008DF807809847044678B905238DF8033018
:10564C000121B3680DF103009847044628B9F368AB
:10565C0001210DF1030098470446736998472CB952
:10566C009DF80330DA0716D5A4F23D747369984798
:10567C000220FEF7A3FF54B97F1BFF2FA944A844B7
:10568C0094BF3D464FF48075ADB2002FC2D1204679
:10569C0002B0BDE8F087FFF74FFF04460028E5D1C4
:1056AC0033698DF803009847044678B935238DF893
:1056BC0003300121B3680DF103009847044628B963
:1056CC00F36801210DF1030098470446736998476C
:1056DC00002CCBD19DF803305B0702D5A4F23F74AC
:1056EC00C4E73369984704460028BFD10421B36846
:1056FC000DEB0100984704460028B7D1B368294642
:10570C00484698470446B1E76FF00404BFE7024CE3
:10571C00BDE700BF4CAA0020C5F8FFFF2DE9F743F9
:10572C0088460746002848D021F07F4505EB00331A
:10573C00B3F5801F44D8244E33699847044638B9D2
:10574C007A238DF804300121B36801A898470446E8
:10575C00736998476CBB15B1C8F30B0191BB4FF043
:10576C0000084FF020092B0C8DF805302B0A8DF812
:10577C0004908DF806308DF80750FFF7DDFE0446D7
:10578C0048B933699847044628B90421B3680DEB2E
:10579C00010098470446736998476420FEF70EFF92
:1057AC003CB908F101035FFA83F8B84505F580555B
:1057BC00D9D3204603B0BDE8F0836FF00404F8E7BA
:1057CC00024CF6E7024CF4E74CAA0020C5F8FFFFA8
:1057DC00C2F8FFFF2DE9F341164E054690460F46E1
:1057EC0029B322B3336998470446D0B90B238DF8FB
:1057FC000030C5F307438DF80130C5F30F238DF846
:10580C000230FF238DF804308DF80350B368052166
:10581C0068469847044620B9F3684146384698478D
:10582C00044673699847204602B0BDE8F0816FF0DA
:10583C000404F6E74CAA002000001400000000004D
:10584C0000000000000004000000001000E1F5055D
:10585C000200000001020104000E000F0006000708
:10586C00001300180106010F0104001F01010100C3
:10587C00001F1C1F1E1F1E1F1F1E1F1E1F000000AF
:10588C0000001F003B005A0078009700B500D400C0
:10589C00F300110130014E018000000000000000F7
:1058AC0000000000000000000000000000000000EC
:1058BC0000000000000000000000000000000000DC
:1058CC0000000000000000000000000000000000CC
:1058DC0000000000000000005266556A586E3272DB
:1058EC00357538782F413F4400000000001D000042
:1058FC000000000000000000001E0000010000007D
:10590C0001000000001F0000020000000200000067
:10591C00010000000300000003000000010400006F
:10592C000700000004000000010200000500000058
:10593C00050000000101000004000000060000004A
:10594C00FF03020302027F6242000000FFFF01001E
:10595C00038001000300010000080C0F1214181A38
:10596C001C1E2022242628292A2C2D2E303132349C
:10597C00353638393A3B3C3D0080004000900040C1
:10598C000080024000800440009004401A011B017A
:10599C0016010D020E020A0B240D25001A0001003F
:1059AC001B000100160001000D0000040E00000495
:1059BC0000600840007008400080084000900840DB
:1059CC0000A00840006009400070094000800940B8
:1059DC000B010C010D010E010F011001110112013F
:1059EC000B0001000C0001000D0001000E00010075
:1059FC000F00010010000100110001001200010055
:105A0C001300130002030000130000001300000039
:105A1C000E000F0004050607202122230060084019
:105A2C0000700840008008400090084000A008402A
:105A3C0000600940007009400080094000FEFFFF33
:105A4C00FBF90000D46100000000000000780000A9
:105A5C0010080020982F8A4291443771CFFBC0B5B3
:105A6C00A5DBB5E95BC25639F111F159A4823F921D
:105A7C00D55E1CAB98AA07D8015B8312BE85312476
:105A8C00C37D0C55745DBE72FEB1DE80A706DC9B37
:105A9C0074F19BC1C1699BE48647BEEFC69DC10FE3
:105AAC00CCA10C246F2CE92DAA84744ADCA9B05C1F
:105ABC00DA88F97652513E986DC631A8C82703B0E2
:105ACC00C77F59BFF30BE0C64791A7D55163CA06F0
:105ADC0067292914850AB72738211B2EFC6D2C4DFC
:105AEC00130D385354730A65BB0A6A762EC9C281EA
:105AFC00852C7292A1E8BFA24B661AA8708B4BC280
:105B0C00A3516CC719E892D1240699D685350EF4A9
:105B1C0070A06A1016C1A419086C371E4C77482760
:105B2C00B5BCB034B30C1C394AAAD84E4FCA9C5BD6
:105B3C00F36F2E68EE828F746F63A5781478C88427
:105B4C000802C78CFAFFBE90EB6C50A4F7A3F9BE09
:105B5C00F27871C68D01020408102040801B365269
:105B6C00096AD53036A538BF40A39E81F3D7FB7C9C
:105B7C00E339829B2FFF87348E4344C4DEE9CB5438
:105B8C007B9432A6C2233DEE4C950B42FAC34E08D1
:105B9C002EA16628D924B2765BA2496D8BD12572D1
:105BAC00F8F66486689816D4A45CCC5D65B6926CE5
:105BBC00704850FDEDB9DA5E154657A78D9D84905F
:105BCC00D8AB008CBCD30AF7E45805B8B34506D063
:105BDC002C1E8FCA3F0F02C1AFBD0301138A6B3A53
:105BEC009111414F67DCEA97F2CFCEF0B4E6739691
:105BFC00AC7422E7AD3585E2F937E81C75DF6E47EA
:105C0C00F11A711D29C5896FB7620EAA18BE1BFC4B
:105C1C00563E4BC6D279209ADBC0FE78CD5AF41F83
:105C2C00DDA8338807C731B11210592780EC5F60AB
:105C3C00517FA919B54A0D2DE57A9F93C99CEFA008
:105C4C00E03B4DAE2AF5B0C8EBBB3C8353996117D2
:105C5C002B047EBA77D626E169146355210C7D633B
:105C6C007C777BF26B6FC53001672BFED7AB76CAA6
:105C7C0082C97DFA5947F0ADD4A2AF9CA472C0B7CB
:105C8C00FD9326363FF7CC34A5E5F171D8311504D8
:105C9C00C723C31896059A071280E2EB27B2750941
:105CAC00832C1A1B6E5AA0523BD6B329E32F845374
:105CBC00D100ED20FCB15B6ACBBE394A4C58CFD039
:105CCC00EFAAFB434D338545F9027F503C9FA85109
:105CDC00A3408F929D38F5BCB6DA2110FFF3D2CDDC
:105CEC000C13EC5F974417C4A77E3D645D19736079
